:100000000C9434000C943E000C943E000C943E0082
:100010000C943E000C943E000C943E000C943E0068
:100020000C943E000C943E000C943E000C943E0058
:100030000C943E000C943E000C943E000C943E0048
:100040000C943E000C943E000C943E000C943E0038
:100050000C943E000C943E000C943E000C943E0028
:100060000C943E000C943E0011241FBECFEFD8E04C
:10007000DEBFCDBF0E9463000C944A010C940000C7
:1000800044988BB985E08A95F1F7000043988AE19E
:100090008A95F1F700C0439A8AE18A95F1F700C08A
:1000A000449A0895CF93DF931F92CDB7DEB741985E
:1000B00069830E944000419A6981862F0F90DF91E9
:1000C000CF910C94400087B18F6387B98FEF8AB9C5
:1000D000219A88B18C6388B988B18C7F88B980E413
:1000E0008093800089E080938100109282001092BA
:1000F0008500109284001092890010928800459823
:100100008FE39CE90197F1F700C00000459A8FE367
:100110009CE90197F1F700C0000060E082E20E94D4
:10012000520060E087E20E94520061E088E20E9493
:10013000520062E088E20E94520064E088E20E947D
:10014000520065E088E20E94520066E088E20E9468
:10015000520060E08BE20E94520061E780E30E945F
:1001600052006DE084E30E94520063E388E30E9442
:10017000520061E08CE30E94520063E280E40E943E
:1001800052006DE284E40E94520066E288E40E941C
:10019000520060E08CE40E9452006FE580E50E940E
:1001A000520069E984E50E9452006FE588E50E94EB
:1001B000520064E98CE50E94520065E080E60E94EE
:1001C000520065E084E60E94520065E088E60E94E5
:1001D000520067E08CE60E94520062E080E70E94D5
:1001E000520062E084E70E94520062E088E70E94C9
:1001F000520062E08CE70E94520061E180E80E94B8
:10020000520061E184E80E94520061E188E80E94A6
:10021000520066EA8CE80E94520060E080E90E9489
:10022000520060E084E90E94520060E088E90E9488
:10023000520060E08CE90E94520062E380EB0E9471
:10024000520060EC84EB0E94520060E088E20E9461
:10025000520062E284EA0E94520069E680EA0E944B
:1002600052009FEF23ED80E3915020408040E1F762
:1002700000C0000060EF88E20E9452009FEF23ED73
:1002800080E3915020408040E1F700C0000060E032
:0802900088E2E5CFF894FFCFEE
:00000001FF
