:100000000C9434000C943E000C943E000C943E0082
:100010000C943E000C943E000C943E000C943E0068
:100020000C943E000C943E000C943E000C943E0058
:100030000C943E000C943E000C943E000C943E0048
:100040000C943E000C943E000C943E000C943E0038
:100050000C943E000C943E000C943E000C943E0028
:100060000C943E000C943E0011241FBECFEFD8E04C
:10007000DEBFCDBF0E9464000C943C010C940000D4
:100080008BB98FEC97E00197F1F700C0000043981F
:100090008FEC97E00197F1F700C0000044988FECD7
:1000A00097E00197F1F700C00000439A8FEC97E0CA
:1000B0000197F1F700C00000449A8FEC97E0019798
:1000C000F1F700C00000089587B1886187B93D98B5
:1000D0008FEF8AB9219A88B1886388B980E48093C8
:1000E000800089E080938100109282001092850048
:1000F0001092840081E090E09093890080938800C2
:100100008EE80E94400083E10E9440002FEF81EEC4
:1001100094E0215080409040E1F700C000008FE95A
:100120000E9440002FEF81EE94E0215080409040EB
:10013000E1F700C000008CEA0E94400081E10E94CB
:1001400040002FEF81EE94E0215080409040E1F795
:1001500000C000008FEB0E9440002FEF81EE94E082
:10016000215080409040E1F700C000008DEC0E94DB
:1001700040008FE00E9440002FEF81EE94E021507C
:1001800080409040E1F700C000008FED0E944000E9
:100190002FEF81EE94E0215080409040E1F700C0C5
:1001A000000085EE0E9440002FEF81EE94E0215088
:1001B00080409040E1F700C000008FEF0E944000B7
:1001C0002FEF83ED90E3215080409040E1F700C095
:1001D000000081E90E9440002FEF83ED90E3215061
:1001E00080409040E1F700C000008FE90E9440008D
:1001F0002FEF83ED90E3215080409040E1F700C065
:10020000000081EB0E9440002FEF83ED90E321502E
:1002100080409040E1F700C000008FEB0E9440005A
:100220002FEF83ED90E3215080409040E1F700C034
:10023000000081ED0E9440002FEF83ED90E32150FC
:1002400080409040E1F700C000008FED0E94400028
:100250002FEF83ED90E3215080409040E1F700C004
:10026000000081EF0E9440002FEF83ED90E32150CA
:0C02700080409040E1F79FCFF894FFCF52
:00000001FF
